{
  "contractName": "IoTMedicineContract",
  "abi": [
    {
      "anonymous": false,
      "inputs": [
        {
          "indexed": true,
          "internalType": "uint256",
          "name": "date",
          "type": "uint256"
        },
        {
          "indexed": false,
          "internalType": "int256",
          "name": "temperature",
          "type": "int256"
        },
        {
          "indexed": false,
          "internalType": "uint256",
          "name": "humidity",
          "type": "uint256"
        },
        {
          "indexed": false,
          "internalType": "int256",
          "name": "latitude",
          "type": "int256"
        },
        {
          "indexed": false,
          "internalType": "int256",
          "name": "longitude",
          "type": "int256"
        }
      ],
      "name": "SensorDataAdded",
      "type": "event"
    },
    {
      "inputs": [],
      "name": "READING_INTERVAL",
      "outputs": [
        {
          "internalType": "uint256",
          "name": "",
          "type": "uint256"
        }
      ],
      "stateMutability": "view",
      "type": "function",
      "constant": true
    },
    {
      "inputs": [
        {
          "internalType": "uint256",
          "name": "",
          "type": "uint256"
        },
        {
          "internalType": "uint256",
          "name": "",
          "type": "uint256"
        }
      ],
      "name": "dailyReadings",
      "outputs": [
        {
          "internalType": "uint256",
          "name": "timestamp",
          "type": "uint256"
        },
        {
          "internalType": "int256",
          "name": "temperature",
          "type": "int256"
        },
        {
          "internalType": "uint256",
          "name": "humidity",
          "type": "uint256"
        },
        {
          "internalType": "int256",
          "name": "latitude",
          "type": "int256"
        },
        {
          "internalType": "int256",
          "name": "longitude",
          "type": "int256"
        }
      ],
      "stateMutability": "view",
      "type": "function",
      "constant": true
    },
    {
      "inputs": [],
      "name": "lastReadingTimestamp",
      "outputs": [
        {
          "internalType": "uint256",
          "name": "",
          "type": "uint256"
        }
      ],
      "stateMutability": "view",
      "type": "function",
      "constant": true
    },
    {
      "inputs": [],
      "name": "medicine",
      "outputs": [
        {
          "internalType": "int256",
          "name": "minTemperature",
          "type": "int256"
        },
        {
          "internalType": "int256",
          "name": "maxTemperature",
          "type": "int256"
        },
        {
          "internalType": "int256",
          "name": "lastIoTTemperature",
          "type": "int256"
        },
        {
          "internalType": "string",
          "name": "description",
          "type": "string"
        }
      ],
      "stateMutability": "view",
      "type": "function",
      "constant": true
    },
    {
      "inputs": [
        {
          "internalType": "int256",
          "name": "_minTemperature",
          "type": "int256"
        },
        {
          "internalType": "int256",
          "name": "_maxTemperature",
          "type": "int256"
        },
        {
          "internalType": "string",
          "name": "_description",
          "type": "string"
        }
      ],
      "name": "setMedicineData",
      "outputs": [],
      "stateMutability": "nonpayable",
      "type": "function"
    },
    {
      "inputs": [
        {
          "internalType": "int256",
          "name": "_temperature",
          "type": "int256"
        },
        {
          "internalType": "uint256",
          "name": "_humidity",
          "type": "uint256"
        },
        {
          "internalType": "int256",
          "name": "_latitude",
          "type": "int256"
        },
        {
          "internalType": "int256",
          "name": "_longitude",
          "type": "int256"
        }
      ],
      "name": "addSensorData",
      "outputs": [],
      "stateMutability": "nonpayable",
      "type": "function"
    },
    {
      "inputs": [
        {
          "internalType": "uint256",
          "name": "_date",
          "type": "uint256"
        }
      ],
      "name": "getReadingsForDate",
      "outputs": [
        {
          "components": [
            {
              "internalType": "uint256",
              "name": "timestamp",
              "type": "uint256"
            },
            {
              "internalType": "int256",
              "name": "temperature",
              "type": "int256"
            },
            {
              "internalType": "uint256",
              "name": "humidity",
              "type": "uint256"
            },
            {
              "internalType": "int256",
              "name": "latitude",
              "type": "int256"
            },
            {
              "internalType": "int256",
              "name": "longitude",
              "type": "int256"
            }
          ],
          "internalType": "struct IoTMedicineContract.SensorData[]",
          "name": "",
          "type": "tuple[]"
        }
      ],
      "stateMutability": "view",
      "type": "function",
      "constant": true
    },
    {
      "inputs": [],
      "name": "getMedicineData",
      "outputs": [
        {
          "components": [
            {
              "internalType": "int256",
              "name": "minTemperature",
              "type": "int256"
            },
            {
              "internalType": "int256",
              "name": "maxTemperature",
              "type": "int256"
            },
            {
              "internalType": "int256",
              "name": "lastIoTTemperature",
              "type": "int256"
            },
            {
              "internalType": "string",
              "name": "description",
              "type": "string"
            }
          ],
          "internalType": "struct IoTMedicineContract.MedicineData",
          "name": "",
          "type": "tuple"
        }
      ],
      "stateMutability": "view",
      "type": "function",
      "constant": true
    },
    {
      "inputs": [
        {
          "internalType": "uint256",
          "name": "_date",
          "type": "uint256"
        }
      ],
      "name": "getReadingsCountForDate",
      "outputs": [
        {
          "internalType": "uint256",
          "name": "",
          "type": "uint256"
        }
      ],
      "stateMutability": "view",
      "type": "function",
      "constant": true
    }
  ],
  "bytecode": "0x608060405234801561001057600080fd5b5061096f806100206000396000f3fe608060405234801561001057600080fd5b50600436106100935760003560e01c806384d7a3091161006657806384d7a3091461012757806399cd67ca1461013c578063c16d2bd41461015c578063d68ff3761461016f578063eb61833c1461017857600080fd5b806306ecebae14610098578063284f2d58146100d85780632dbb5b2c146100f057806347c2fdec14610107575b600080fd5b6100ab6100a6366004610754565b61018d565b604080519586526020860194909452928401919091526060830152608082015260a0015b60405180910390f35b6100e06101db565b6040516100cf9493929190610831565b6100f960055481565b6040519081526020016100cf565b6100f961011536600461073b565b60009081526020819052604090205490565b61013a610135366004610709565b61027c565b005b61014f61014a36600461073b565b6103d6565b6040516100cf91906107c3565b61013a61016a366004610645565b610471565b6100f961a8c081565b6101806104bf565b6040516100cf9190610860565b600060205281600052604060002081815481106101a957600080fd5b600091825260209091206005909102018054600182015460028301546003840154600490940154929550909350919085565b6001805460025460035460048054939492939192916101f9906108e8565b80601f0160208091040260200160405190810160405280929190818152602001828054610225906108e8565b80156102725780601f1061024757610100808354040283529160200191610272565b820191906000526020600020905b81548152906001019060200180831161025557829003601f168201915b5050505050905084565b42600061028c62015180836108a1565b9050600554600014806102ae575061a8c0600554836102ab91906108c3565b10155b61030a5760405162461bcd60e51b815260206004820152602360248201527f4d757374207761697420313220686f757273206265747765656e2072656164696044820152626e677360e81b606482015260840160405180910390fd5b6040805160a081018252838152602080820189815282840189815260608085018a815260808087018b815260008a8152808852898120805460018082018355918352918990208a51600593840290910190815597519088015594516002870155915160038087019190915591516004909501949094558c90559087905584518b81529283018a9052938201889052928101869052909183917f3160444dce4dbfecb649427a6f592ad4f2c73a368705858a67f3da8e297f4be9910160405180910390a250505050505050565b600081815260208181526040808320805482518185028101850190935280835260609492939192909184015b8282101561046657838290600052602060002090600502016040518060a00160405290816000820154815260200160018201548152602001600282015481526020016003820154815260200160048201548152505081526020019060010190610402565b505050509050919050565b6040805160808101825284815260208082018590526003549282019290925260608101839052600185815560028590558351919290916104b791600491908601906105ac565b505050505050565b6104ea6040518060800160405280600081526020016000815260200160008152602001606081525090565b6001604051806080016040529081600082015481526020016001820154815260200160028201548152602001600382018054610525906108e8565b80601f0160208091040260200160405190810160405280929190818152602001828054610551906108e8565b801561059e5780601f106105735761010080835404028352916020019161059e565b820191906000526020600020905b81548152906001019060200180831161058157829003601f168201915b505050505081525050905090565b8280546105b8906108e8565b90600052602060002090601f0160209004810192826105da5760008555610620565b82601f106105f357805160ff1916838001178555610620565b82800160010185558215610620579182015b82811115610620578251825591602001919060010190610605565b5061062c929150610630565b5090565b5b8082111561062c5760008155600101610631565b60008060006060848603121561065a57600080fd5b8335925060208401359150604084013567ffffffffffffffff8082111561068057600080fd5b818601915086601f83011261069457600080fd5b8135818111156106a6576106a6610923565b604051601f8201601f19908116603f011681019083821181831017156106ce576106ce610923565b816040528281528960208487010111156106e757600080fd5b8260208601602083013760006020848301015280955050505050509250925092565b6000806000806080858703121561071f57600080fd5b5050823594602084013594506040840135936060013592509050565b60006020828403121561074d57600080fd5b5035919050565b6000806040838503121561076757600080fd5b50508035926020909101359150565b6000815180845260005b8181101561079c57602081850181015186830182015201610780565b818111156107ae576000602083870101525b50601f01601f19169290920160200192915050565b602080825282518282018190526000919060409081850190868401855b828110156108245781518051855286810151878601528581015186860152606080820151908601526080908101519085015260a090930192908501906001016107e0565b5091979650505050505050565b8481528360208201528260408201526080606082015260006108566080830184610776565b9695505050505050565b602081528151602082015260208201516040820152604082015160608201526000606083015160808084015261089960a0840182610776565b949350505050565b6000826108be57634e487b7160e01b600052601260045260246000fd5b500490565b6000828210156108e357634e487b7160e01b600052601160045260246000fd5b500390565b600181811c908216806108fc57607f821691505b6020821081141561091d57634e487b7160e01b600052602260045260246000fd5b50919050565b634e487b7160e01b600052604160045260246000fdfea264697066735822122069139e236bbd48ec43ed58f0a457efaafa05af3bfa0f65284891885f8ad939cd64736f6c63430008070033",
  "immutableReferences": {},
  "source": "// SPDX-License-Identifier: MIT\r\npragma solidity ^0.8.7;\r\n\r\ncontract IoTMedicineContract {\r\n    //     IoT\r\n    struct SensorData {\r\n        uint256 timestamp;  //   \r\n        int256 temperature; //     100\r\n        uint256 humidity;   //    100\r\n        int256 latitude;    //     1000000\r\n        int256 longitude;   //     1000000\r\n    }\r\n\r\n    //    \r\n    struct MedicineData {\r\n        int256 minTemperature;  //      100\r\n        int256 maxTemperature;  //      100\r\n        int256 lastIoTTemperature; //     IoT   100\r\n        string description;     //  \r\n    }\r\n\r\n    //   IoT  \r\n    mapping(uint256 => SensorData[]) public dailyReadings;\r\n\r\n    //   \r\n    MedicineData public medicine;\r\n\r\n    //     \r\n    uint256 public lastReadingTimestamp;\r\n\r\n    //    (12  = 43200 )\r\n    uint256 public constant READING_INTERVAL = 12 hours;\r\n\r\n    //       IoT\r\n    event SensorDataAdded(\r\n        uint256 indexed date,\r\n        int256 temperature,\r\n        uint256 humidity,\r\n        int256 latitude,\r\n        int256 longitude\r\n    );\r\n\r\n    //    \r\n    function setMedicineData(\r\n        int256 _minTemperature,\r\n        int256 _maxTemperature,\r\n        string memory _description\r\n    ) public {\r\n        medicine = MedicineData({\r\n            minTemperature: _minTemperature,\r\n            maxTemperature: _maxTemperature,\r\n            lastIoTTemperature: medicine.lastIoTTemperature, //        IoT\r\n            description: _description\r\n        });\r\n    }\r\n\r\n    //       IoT\r\n    function addSensorData(\r\n        int256 _temperature,\r\n        uint256 _humidity,\r\n        int256 _latitude,\r\n        int256 _longitude\r\n    ) public {\r\n        uint256 timestamp = block.timestamp;\r\n        uint256 date = timestamp / 86400;\r\n\r\n        //    12    \r\n        require(\r\n            lastReadingTimestamp == 0 || (timestamp - lastReadingTimestamp) >= READING_INTERVAL,\r\n            \"Must wait 12 hours between readings\"\r\n        );\r\n\r\n        SensorData memory newData = SensorData({\r\n            timestamp: timestamp,\r\n            temperature: _temperature,\r\n            humidity: _humidity,\r\n            latitude: _latitude,\r\n            longitude: _longitude\r\n        });\r\n\r\n        dailyReadings[date].push(newData);\r\n\r\n        //      IoT   \r\n        medicine.lastIoTTemperature = _temperature;\r\n\r\n        //    \r\n        lastReadingTimestamp = timestamp;\r\n\r\n        emit SensorDataAdded(date, _temperature, _humidity, _latitude, _longitude);\r\n    }\r\n\r\n    //     \r\n    function getReadingsForDate(uint256 _date) public view returns (SensorData[] memory) {\r\n        return dailyReadings[_date];\r\n    }\r\n\r\n    //   \r\n    function getMedicineData() public view returns (MedicineData memory) {\r\n        return medicine;\r\n    }\r\n\r\n    //      \r\n    function getReadingsCountForDate(uint256 _date) public view returns (uint256) {\r\n        return dailyReadings[_date].length;\r\n    }\r\n}",
  "sourcePath": "C:\\Users\\LENOVO\\Desktop\\repo2 - Study\\repo2 - Copy\\grad_pro\\contracts\\IoTMedicineContract.sol",
  "compiler": {
    "name": "solc",
    "version": "0.8.7+commit.e28d00a7.Emscripten.clang"
  },
  "schemaVersion": "3.4.16",
  "updatedAt": "2025-04-25T00:06:08.868Z",
  "networkType": "ethereum",
  "devdoc": {
    "kind": "dev",
    "methods": {},
    "version": 1
  },
  "userdoc": {
    "kind": "user",
    "methods": {},
    "version": 1
  }
}